:100000000C942A000C9434000C9434000C943400AA
:100010000C9434000C9434000C9434000C94340090
:100020000C9434000C9434000C9434000C94340080
:100030000C9434000C9434000C9434000C94340070
:100040000C9434000C9434000C9434000C94340060
:100050000C94340011241FBECFE5D8E0DEBFCDBF25
:100060000E9441000C944B000C94000082EC82BF73
:1000700082E083BF08B600FEFDCF81E088BF12BEDC
:1000800008958FEF84BB81E085BB0E94360015BACE
:0A0090000E943600F8CFF894FFCF6D
:00000001FF
